:020000040800F2
:1080000000000220ED2D0108298A00082D8A0008B1
:10801000318A0008358A0008398A0008000000000B
:108020000000000000000000000000003D8A000881
:10803000418A000800000000458A0008498A0008BB
:10804000392E0108392E0108392E0108392E010870
:10805000392E0108392E0108392E0108392E010860
:10806000392E0108392E0108392E0108392E010850
:10807000392E0108392E0108392E0108392E010840
:1080800035DD0008392E0108392E0108392E010886
:10809000392E0108392E0108392E0108392E010820
:1080A000392E0108392E0108392E0108392E010810
:1080B000392E0108392E0108392E0108392E010800
:1080C000392E0108392E0108392E0108392E0108F0
:1080D000392E0108392E0108392E0108392E0108E0
:1080E000392E0108392E0108392E0108392E0108D0
:1080F000392E0108392E0108392E0108392E0108C0
:10810000392E0108392E0108392E0108392E0108AF
:10811000392E0108392E0108392E0108392E01089F
:10812000392E0108392E0108392E0108392E01088F
:10813000392E0108392E0108392E0108392E01087F
:10814000392E0108392E0108392E0108392E01086F
:10815000392E0108392E0108392E0108392E01085F
:10816000392E0108392E0108392E0108392E01084F
:10817000392E0108392E0108392E0108392E01083F
:10818000392E0108392E010800000000000000000F
:10819000844641EA000313F003036DD1403A41D312
:1081A00051F8043B40F8043B51F8043B40F8043BD1
:1081B00051F8043B40F8043B51F8043B40F8043BC1
:1081C00051F8043B40F8043B51F8043B40F8043BB1
:1081D00051F8043B40F8043B51F8043B40F8043BA1
:1081E00051F8043B40F8043B51F8043B40F8043B91
:1081F00051F8043B40F8043B51F8043B40F8043B81
:1082000051F8043B40F8043B51F8043B40F8043B70
:1082100051F8043B40F8043B51F8043B40F8043B60
:10822000403ABDD2303211D351F8043B40F8043B00
:1082300051F8043B40F8043B51F8043B40F8043B40
:1082400051F8043B40F8043B103AEDD20C3205D310
:1082500051F8043B40F8043B043AF9D2043208D008
:10826000D2071CBF11F8013B00F8013B01D30B887A
:1082700003806046704700BF082A13D38B078DD058
:1082800010F003038AD0C3F10403D21ADB071CBF2A
:1082900011F8013B00F8013B80D331F8023B20F894
:1082A000023B7BE7043AD9D3013A11F8013B00F8CD
:1082B000013BF9D20B7803704B7843708B78837055
:1082C000604670472DE9F84F05460162002105F030
:1082D000B7F8D5F82090514909F1200B05F1400677
:1082E0002B4605F1740A002091ED066AD1ED017A62
:1082F00091ED0D7AD1ED086A91ED025AD1ED094A5E
:108300000A68D1ED033A91ED044A9FED451A4C6994
:10831000D1ED071A1A64F0EE005AE6EE257A071D31
:108320000BEB000CC5EB06084844E7EE256A9863A2
:10833000D04435EE460A00220BEB070091ED0A2AE5
:108340009C65C3F834C0C3ED117A83ED120AC3ED06
:10835000133A83ED154A83ED0F1A83ED181A83ED56
:10836000191A83ED1B1A83ED1C1A83ED1A1A83F870
:108370005C2074EEC70A08ED0F6A08ED101AD86782
:1083800006F1480003F1480E09EB0704C5EB0008AD
:10839000381DC3F88040C3ED236AC3ED221AD044D0
:1083A000C3ED240A2028D1F82CC00C6B83ED252ABC
:1083B000C3F89CC001F13801CEF858408EED0F1A79
:1083C0008EED181A8EED191A8EED1B1A8EED1C1AF1
:1083D0008EED1A1A8EF85C2003F1900306F19006D8
:1083E00008ED0F7A08ED101A7FF47EAF0D4FC5F837
:1083F00074724FF07E544FF07C59C5F88072C5F806
:108400008472C5F88872C5F88C72C5F89072C5F888
:108410007C42C5F87892BDE8F88F00BFA02F010814
:1084200000000000AE47813F10B5044620220846F8
:1084300021460AF003FD2046BDE8104005F048B98A
:108440002DE9F001034600F51D7800F1740500F1F7
:10845000780700F16C0600F1680C002423E073EE4D
:10846000C73AC5ED003AD3ED151AF4EEE31AF1EE72
:1084700010FA08DCD3ED161AF4EEE31AF1EE10FA56
:1084800058BFF0EE631A0234102CE2EC011A03F12B
:10849000480305F1480507F1480706F148060CF1C5
:1084A000480C00F0CB800819F8EC013A008ADFEDA7
:1084B0006C4A93ED195A93ED1C6AD3ED186AD3ED0B
:1084C000135A93ED104A02EE100A986BD0ED007A21
:1084D000586BB6EE007AD0ED002A085B73EEC70A3F
:1084E000B8EE420A03EE100A20EE241A60EEA01A3B
:1084F000B8EE432AE1EE227A93F85C0020EEA17AEE
:10850000F0EE452AD2EE242AF2EE003AF0EE464A88
:10851000D7EE234A77EEE60AB0EE451AA5EEA21A88
:10852000A5EEA46AE4EE206AC3ED0F7A83ED191A72
:1085300083ED1C6AC3ED186A002878D0022873D135
:10854000DCED005A9FED475A71EE657AB0EEE74ACE
:10855000B4EEC54AF1EE10FA66DDF5EEC07AF1EE42
:1085600010FAD6ED001A6CDD9FED3F3A33EE650A46
:1085700073EE614AC4EE802ADFED3C0AF4EEE02A95
:10858000F1EE10FA08D4F2EE040AF4EE602AF1EEED
:1085900010FAD8BFF0EE620AE7EEA01ADFED345A07
:1085A000F4EEE51AF1EE10FA54D4B7EE005AF4EEF8
:1085B000C51AF1EE10FAD2BFC6ED001AF0EE451A58
:1085C00086ED005A31EEC14ADFED267AB0EEC42ABC
:1085D000B4EEE72AF1EE10FA44BF002083F85C0005
:1085E0008CED001A93ED111AD3ED123AD5ED002A55
:1085F00097ED007AE1EE213AE6EE263A73EEE26A72
:10860000F4EEC76AF1EE10FA3FF729AFB1EE476A10
:10861000F4EEC66AF1EE10FA4ABF73EE873AF0EE56
:10862000623AC5ED003A1EE7D6ED001ADAE786EDAC
:10863000001AF0EE411A8CED001AD3E7BDE8F00104
:1086400070479FED0C2A35EE827A71EE823AC3EEC6
:10865000872A91E7C6ED005AF0EE651AB2E700BF2F
:10866000000080370AD7233CC520803FCDCCCC3DCD
:10867000000000006F12833A2DE9F047044688B0ED
:108680000E469C4821466A46FFF7DAFE002E00F0AF
:108690000A81DFF88092984B984FD9ED007A984A7A
:1086A000D3ED161A93ED122AD3ED172A93ED133A50
:1086B000D3ED183A93ED144AD3ED194A93ED155AB8
:1086C00094F8208094F821C020462346391D0024C8
:1086D0009FED8C7ADFED8C6A77EE877AB7EE000A31
:1086E000F4EEC07AF1EE10FAA8BF77EEC07AB1EEE0
:1086F000001A27EEA60AF9EE045ABDEEC06A16EE7D
:10870000105A4FEA850E07EB0E0A8E44F8EEC66A41
:108710009AED007ADEED000A30EE660A30EEC76AA6
:10872000A0EE067A27EE011AB4EEE51AF1EE10FA81
:1087300008D4F1EE045AB4EE651AF1EE10FAD8BF7F
:10874000F0EE415AFAEE006AB1EE007AF0EE420A1B
:10875000E5EEA10AA7EEA67AB9EE046ABDEEE00A3C
:10876000B4EEC67AF1EE10FA10EE105A85F3100E40
:10877000A3F82CE008D4B1EE046AB4EE467AF1EE28
:1087800010FAD8BFB0EE476AB0EE431AA6EE221A2E
:10879000B6EE007AFDEEC16AF4EEC77AF1EE10FA99
:1087A00016EE90AA8AF31005DD8640F18B80F3EE79
:1087B000005AB9EE001AA7EEA51AF9EE046AB4EE53
:1087C000E61AF1EE10FA08D4F1EE046AB4EE661A75
:1087D000F1EE10FAD8BFF0EE416AB6EE007AF4EE90
:1087E000C77AF1EE10FAF9EE000AB1EE000A58BFAE
:1087F000F0EE400AB0EE446AF0EE455AA6EEA36AE7
:10880000E0EEA45AFDEEC66ABDEEE57A16EE90EAF9
:108810008EF3100A17EE105A85F3100EA3F840A03D
:10882000A3F84AE0B2F8085105B19D85B2F80A51A3
:1088300005B1DD86B2F80C510DB1A3F84050B2F885
:108840000E510DB1A3F84A50B8F1000F45D090F881
:10885000225015F1000A18BF4FF0010AB6EE000AC7
:10886000F4EEC07AF1EE10FA54BF4FF0000E4FF064
:10887000010E80F854A080F85BE0BCF1000F15D029
:1088800090F8275015F1000A18BF4FF0010A013483
:10889000B44280F862A003F1020300F101007FF40A
:1088A00017AFC9ED007A08B0BDE8F0879FED176AF1
:1088B000F4EEC67AF1EE10FA54BF4FF0000A4FF012
:1088C000010AE4E7F7EE000A30EEE70AB3EE006AC9
:1088D000B9EE001AA0EE061A6FE7DFED0D0AF4EE0E
:1088E000E07AF1EE10FA54BF4FF0000A4FF0010A9F
:1088F000B4E700BF84210020B81D0020A044020876
:10890000A41C0020CDCC4C3B00008043CDCC4C3F80
:10891000CDCC4C3EA830002070B53C4CD4F8D430BF
:10892000D4F8D8600A4605466A21D01801FB0641F2
:10893000042885E80A0053D8C4F8D4000B4493F8FF
:108940005410002946D032494FF4006CA1F818C0E9
:1089500093F85B00002830D02E4E93F862304FF42D
:10896000006EA6F818E0002B2FD12A484FF4805C47
:10897000A0F81AC02848294604F04CFFD4F8D420A7
:10898000002A39D0254C6368D90714D5244EA06835
:10899000D6F80022D6F8041202F17F04631A5A06B0
:1089A00009D0D6F8042202F1010E46F822000EF09A
:1089B0007F00C6F80402284670BD164E93F8623058
:1089C0004FF400617183002BCFD0124E4FF48051D1
:1089D0003183CFE70E4E4FF4006EA6F81AE0B7E7EA
:1089E000D4F8D86006F1010C05380CF00106C4F883
:1089F000D400C4F8D860A1E729680A48FFF714FD3D
:108A00000548296804F0B6FEBCE700BFD03000205E
:108A10000008024000000240AC3000200008065070
:108A20001824002084210020704700BFFEE700BF0B
:108A3000FEE700BFFEE700BFFEE700BF704700BFD4
:108A4000704700BF704700BF10B509F05DFF0948CF
:108A500003F018F8084B187818B1084C21888B06D9
:108A600000D410BDA2880348D1B203F0B5FBA080AA
:108A700010BD00BFA41C0020B81D00200010014044
:108A80002DE9F0438E4FDFF8DC928BB0012103A873
:108A900005F020FB384601F025FC484604F026FE90
:108AA000012288484FF4FA4105F05AF8012140208C
:108AB00009F0A8FF01200AF005F8834B00240120EB
:108AC0001C605C609C60DC601C615C619C610146B8
:108AD000DC611C620AAE09F087FF0420012109F065
:108AE00083FF4FF4C05046F8100D00254FF00108E9
:108AF000314676488DF81C808DF81E508DF81D503B
:108B00008DF81F5009F084FD4FF400623146704823
:108B1000069209F07DFD6F496F4B70480D6007F1BB
:108B20000801C3F8D850C3F8D450C3F8DC80FFF76D
:108B3000C9FBDFF834E2CDF8009039467346684847
:108B4000664ACEF80050CEF80440CEF8084002F055
:108B5000BFFD3F78002F76D1624D634B63489FED98
:108B6000640AC5F80832002729460124C5F80472B2
:108B7000C5F800721C6007F0EBF89FED5D0A5D48D8
:108B8000294608F035FD5C485C4906F0D1FD5C489B
:108B90005A4906F0CDFD5B48584906F0C9FD5A48D0
:108BA0005A4906F0C5FD5A48584906F0C1FD5948D2
:108BB000564906F0BDFD5848584906F0B9FD5848D9
:108BC000564906F0B5FD5748544906F0B1FD5648E0
:108BD000564906F0ADFD5648544906F0A9FD5548E2
:108BE000524906F0A5FD5448544906F0A1FD5448E9
:108BF000524906F09DFD5348504906F099FD5248F0
:108C0000524906F095FD5248504906F091FD5148F1
:108C10004E4906F08DFD504902220A6203A80C61FC
:108C20000F604F608F60CF604F618F61CF614F6287
:108C30008F62CF6205F060FA2248484904F0A8FF2D
:108C40000BB0BDE8F08302F035FD4146102009F07D
:108C5000F5FE4046414609F0C7FE4FF4C0640222CB
:108C600004A91A488DF814208DF815508DF8165067
:108C70008DF81750049409F0CBFC14480921072201
:108C800009F01EFE072211480A2109F019FE31469B
:108C90004FF00C0C4FF416563148ADF81C50ADF89F
:108CA0001E50ADF82050ADF824500696ADF822C005
:108CB0000AF020F841462A480AF088F84CE700BF3D
:108CC000B81D0020A02F0020C42E0020000002406C
:108CD0000008024010060020D0300020842100202F
:108CE000A41C002018240020242600204427002053
:108CF0000000FA461406002030090020201E002043
:108D0000AC0C002028100020B8090020A81E00206C
:108D1000340D0020B0100020400A0020301F002039
:108D2000BC0D002038110020C80A0020B81F002008
:108D3000440E0020C0110020500B002040200020D5
:108D4000CC0E002048120020D80B0020C8200020A4
:108D5000540F0020D0120020482600201989000856
:108D600000100140AC3000207826002070B5FFF7DD
:108D700087FE144E144C134804F0FEFAD4F8DC209D
:108D800096F8065111481249D4F8D830002D0CBF7E
:108D900005460D469A42EED0D4F8DC104FF06A0C2E
:108DA0000CFB01400521A847D4F8DC00421C02F06E
:108DB0000103C4F8DC30D4F8DC10D4F8D8008142C8
:108DC000EAD1D8E7A41C0020D03000201D9700086D
:108DD0007986000888422DE9F84F074600F07B812C
:108DE0008A4200F078810C1A121AA4109010061B07
:108DF000B44200F07281A642B04640F3B280012C2A
:108E000000F02782002E07EB840C40F39A80BA46CC
:108E100062460121D7F80080DCF800B04AF804BBB4
:108E2000731EB14203F0070542F8048B00F08780FF
:108E3000002D46D0012D3AD0022D30D0032D26D062
:108E4000042D1CD0052D12D0062D08D0DCF804907E
:108E5000DAF800304AF8049B42F8043B0221DAF8C1
:108E6000008015684AF8045B42F8048B0131DAF897
:108E7000003015684AF8045B42F8043B0131DAF827
:108E8000003015684AF8045B42F8043B0131DAF817
:108E9000003015684AF8045B42F8043B0131DAF807
:108EA000003015684AF8045B42F8043B0131013197
:108EB000DAF8003015684AF8045BB14242F8043B26
:108EC0003DD01546D446DAF80030D2F800B04CF860
:108ED00004BB45F8043BDAF80430D2F80490CCF82F
:108EE00000902B60DCF80430D5F80480CAF80880C4
:108EF0009360D568DAF80CB0CAF80C50C2F80CB020
:108F0000DAF810301569CAF810501361DAF8143025
:108F10005569CAF814505361DAF818309569CAF8DF
:108F200018509361DAF81C30D569CAF81C50083122
:108F30000AF1200A2032B14242F8043CC1D107EBC9
:108F4000810790FBF4F604FB1600002800F0C380B4
:108F5000A046241AC4EB0806A6424046B0463FF796
:108F60004EAF012E00F0608107EB800C002CACEBC3
:108F7000860740F3A9803A466346012152F8049DD2
:108F800053F804AD47F804AC651EA14205F007058F
:108F90004CF8049C00F09680002D4CD0012D3FD061
:108FA000022D34D0032D29D0042D1ED0052D13D031
:108FB000062D08D052F804BC53F8045C42F8045D56
:108FC00043F804BD022152F8049C53F8045C42F8B3
:108FD000045D43F8049D013152F804AC53F8045C7D
:108FE00042F8045D43F804AD013152F804BC53F873
:108FF000045C42F8045D43F804BD013152F8049C5E
:1090000053F8045C42F8045D43F8049D013152F8C2
:1090100004AC53F8045C42F8045D43F804AD01313C
:10902000013152F804BC53F8045C42F8045DA142DB
:1090300043F804BD46D094461D465CF804BD55F87F
:10904000049D42F8049CE24643F804BCA94679ED2D
:10905000017A5AF804BD4CED017A45F804BC5AF87F
:10906000045C59F804CC42F80CCC43F80C5C52F880
:1090700010AC53F8105C42F8105C43F810AC52F896
:10908000149C53F8145C42F8145C43F8149C53F895
:10909000185C52F818BC42F8185C43F818BC53F836
:1090A0001C5C52F81CAC42F81C5C083143F81CAC48
:1090B00052F8209C53F8205C42F8205DA14243F80E
:1090C000209DB8D1A7EB810790FBF6F406FB1404B2
:1090D000002C7FF43FAFBDE8F88F07F1040CCCEB18
:1090E000010501F1040925F00308C8440E683F6832
:1090F0004CF8046CC1EB0801081FC145C0F38204A1
:1091000049F8047C00F0B780002C45D0012C39D000
:10911000022C2FD0032C25D0042C1BD0052C11D0D1
:10912000062C07D0DCF80020D9F800304CF8043BBE
:1091300049F8042BDCF80050D9F800704CF8047B97
:1091400049F8045BDCF80060D9F800104CF8041B07
:1091500049F8046BDCF80040D9F800B04CF804BBC7
:1091600049F8044BDCF80020D9F800A04CF804AB17
:1091700049F8042BDCF80030D9F800004CF8040B57
:1091800049F8043BDCF80050D9F800704CF8047B37
:1091900049F8045BC1456CD0E3464946D9F8006004
:1091A000DCF800404BF8046B41F8044BD9F804306C
:1091B000DCF80420CBF800300A60DBF804A0486833
:1091C000CCF80800C9F808A0DCF80C50D9F80C70ED
:1091D000CCF80C70C9F80C50D9F81060DCF81040CD
:1091E000CCF81060C9F81040D9F81410DCF814B0AD
:1091F000CCF81410C9F814B0D9F81830DCF81820DD
:10920000CCF81830C9F81820D9F81CA0DCF81C508C
:10921000CCF81CA009F120090CF1200CC14549F83B
:10922000045CB9D1BDE8F88F00F18042531E99006B
:109230007818C61BB410056808D001F1040EBE44AE
:10924000A200C2EB0E00394609F0F8FD3D60BDE812
:10925000F88F394607EB800451F804AB621A93107B
:1092600003D038469A0009F0E9FD44F804ACBDE8A3
:10927000F88FBDE8F88FBDE8F88F00BFF8B58842D9
:109280002DED028B06460F4637D0051DA94234D07E
:10929000AC466446B4EC018AD6ED007AB4EEE78AB7
:1092A000F1EE10FA62461AD415ED010AB4EEC08A46
:1092B000F1EE10FA24D5ACF1040382ED000A1A464F
:1092C00033ED010AB4EEC08AF1EE10FAF5D4BC42D7
:1092D00082ED008A05F104050FD0A446D9E7A81B4A
:1092E000811004D08A00A01A314609F0A7FDBC42C3
:1092F00086ED008A05F10405EFD1BDEC028BF8BDC7
:109300006246E4E7F0B4571E07EBD7734FEA630CED
:109310006145B8BF0D465BDA6C1C630000EB830649
:1093200000EBC40416ED017AD4ED007AF4EEC77AAE
:10933000F1EE10FA00EB850704D5013B00EB830446
:10934000D4ED007A63451D46C7ED007AE4DBD5070E
:1093500005D4023A02EBD275B3EB650F2BD05A1E3F
:1093600002EBD2758B424FEA650220DD00EB820CE6
:10937000DCED000AB4EEE00AF1EE10FA09DC16E0CA
:10938000D5ED000AB4EEE00AF1EE10FA0DDD134659
:109390003A46541E04EBD47600EB830377109142D7
:1093A000C3ED000A00EB8705EADB00EB820484EDE5
:1093B000000AF0BC704701334FEA430C00EB8C0607
:1093C0000CF1FF3356F8047C276000EB8304C6E7FA
:1093D00000EB81040B46BAE70B1A432B2DE9F0474B
:1093E0000646174640F39681002A00F0818000F17E
:1093F0000408D81006EB800494ED007AD6ED017ACB
:1094000051ED016AF4EEC77AF1EE10FA07F1FF3779
:1094100050D5B4EEE67AF1EE10FA55D4F4EEE67AD1
:10942000F1EE10FA5BD5D6ED000AC6ED006A41ED0B
:10943000010A96ED010AD6ED007AB4EEE70AF1EEE4
:1094400010FA8A46C44629D50CF104094D46B9ECF8
:10945000010AB4EEE70AF1EE10FAF7D4F4EEE70AE7
:10946000F1EE10FAAAF1040A06DD7AED010AF4EE33
:10947000E70AF1EE10FAF8DC554511D2AC46ECECF7
:10948000010A8AED000A95ED010AD6ED007A5AED3F
:10949000010AB4EEE70AF1EE10FAD5D46546DDE72D
:1094A00028463A46FFF798FFAB1B432B78DD07B3FE
:1094B00029469EE7F4EEE67AF1EE10FA0FD4B4EE08
:1094C000E67AF1EE10FAAED4326886ED007A2260C8
:1094D00096ED010A51ED010AD6ED007AADE796ED61
:1094E000000AC6ED007A86ED010A51ED010AA4E7F3
:1094F0000D464FEAA308A8F102014C10631C14F0BA
:10950000070906EB83077DD021463046424637EDFA
:10951000010AFFF7F7FEB9F1010F04F1FF3471D032
:10952000B9F1020F33D0B9F1030F28D0B9F1040F0C
:109530001DD0B9F1050F12D0B9F1060F07D02146A1
:109540003046424637ED010AFFF7DCFE013C21467A
:109550003046424637ED010AFFF7D4FE013C214672
:109560003046424637ED010AFFF7CCFE013C21466A
:109570003046424637ED010AFFF7C4FE013C214662
:109580003046424637ED010AFFF7BCFE013C21465A
:109590003046424637ED010A013CFFF7B3FE31E0A9
:1095A000BDE8F08717ED020AFFF7ACFE17ED030ADE
:1095B000A11E30464246FFF7A5FE17ED040AE11E44
:1095C00030464246FFF79EFE17ED050A211F304642
:1095D0004246FFF797FE17ED060A611F30464246E6
:1095E000FFF790FE203FA11F97ED010A304642464B
:1095F000FFF788FEE11F3046424697ED000A083C1F
:10960000FFF780FE30462146424604F1FF3A17ED4F
:10961000010AFFF777FE514642463046002CC1D181
:10962000A946306815ED010A49F8040DC6EB090793
:10963000C6EB050EBA1030462146AEF10805FFF71D
:1096400061FE072FC5F3810562DD4DB3012D19D0F1
:10965000022D0BD0326819ED010A49F8042DC6EB32
:10966000090321469A103046FFF74CFE316819ED88
:10967000010A49F8041DC6EB0904A2103046002176
:10968000FFF740FE306819ED010A49F8040DC6EBFA
:109690000907BA1030460021FFF734FE072F3BDDE3
:1096A000C84638ED010A356849F8045CC6EB080A7B
:1096B00047464FEAAA0230460021FFF723FE37ED66
:1096C000010AD6F800C048F804CCBA1B9210304604
:1096D0000021FFF717FEA9F10C01336817ED010A0D
:1096E00049F80C3C8C1BA21030460021FFF70AFE03
:1096F000306819ED040A49F8100DC6EB0905AA10E7
:1097000030460021FFF7FEFD072DC9DCBDE8F087DC
:10971000BDE8F087BDE8F087BDE8F0872DE9F04FA0
:109720002DED048BDFF8C08393B004468946424692
:109730000146DC48FEF784FED8ED007ADFEDDA6AF8
:10974000B6EE007A37EEC70AF0EEC00AF4EEE60A8B
:10975000F1EE10FA40F39F83D4480890002180F87E
:109760000511DFEDD31AF4EEE17AF1EE10FA40F1D3
:109770008283DFEDD03A27EEA39A94F8212004F1FA
:10978000220E002A00F07583CB4A08260427F446EF
:109790000125B646A2F10C0309974E46002E00F0B3
:1097A000B68094F827A052F80C1C5FEA8A7009D59D
:1097B00098680B2800F2B083002742F8087C9F606D
:1097C00094F827A04FEAC10BC1EB0B09A1440AF0A2
:1097D000010099F85470874200F0A58352F8080CF4
:1097E000471C052F42F8087C84BF0027DF60012E4C
:1097F00040F28D8094F8280010F0020F09D098688C
:109800000B2800F28583002742F8087C9F6094F8BB
:109810002800C1EB0B0AA24400F001079AF855009A
:10982000B84200F0908352F8087C781C052842F872
:10983000080C84BF0020D860022E68D094F829A0BC
:109840001AF0020F09D09F680B2F00F25D830020F1
:1098500042F8080C986094F829A0C1EB0B09A144C8
:109860000AF0010799F85600B84200F0688352F8F0
:10987000087C781C052842F8080C84BF0020D860BA
:10988000032E44D094F82AA01AF0020F09D09F6842
:109890000B2F00F21483002042F8080C986094F813
:1098A0002AA0C1EB0B09A1440AF0010799F857005F
:1098B000B84200F0408352F8087C781C052842F832
:1098C000080C84BF0020D860042E20D094F82BA070
:1098D0001AF0020F09D09F680B2F00F2EC820020D3
:1098E00042F8080C986094F82BA0C1EB0B012144BE
:1098F0000AF0010B91F858705F4500F0188352F898
:10990000087C781C052842F8080C00F2D182DF6838
:10991000BE4502D8E8B2BE4609900135042D02F1D9
:10992000100203F110037FF439AFE646B1469FED14
:10993000635A634998ED014ADFED624A91ED008A6E
:10994000614D624E6248634BDFF8A0A1D8F80C70FD
:10995000D8F808C0F760B0EE456AA4EE246A95F81E
:10996000A973C6F808C0F8EEC88AFDEE009AB4EEF6
:10997000E86AF1EE10FAF5EE007AC8BFF0EE697A07
:1099800076EE276AF6EE000A36EEA07ACAF80430C0
:10999000BDEEC70AD8F810C0377110EE10BABBF18F
:1099A000490FA8BF4FF0490B2BEAEB720A6095F8FC
:1099B000A81350F82200079003F1280703F11400C0
:1099C00095F8AA2372713C330229C6F810C0CAF870
:1099D0000000CAF80870CAF80C3005D0012914BF7D
:1099E000F0EE450AF0EE490A0798C6ED590A411E05
:1099F0000F29364F09D8D7F84C21C7F8480192FBF8
:109A0000F0F300FB1320C7F84C0195F8AB13324A72
:109A100095F8AC7394F820C0CDF8109001EE101AB0
:109A200007CA01EE907A8DE807009FED2C2A2C4B97
:109A30000393F8EE412AB8EE613A62EE823A23EEE1
:109A4000024ADFF860B0C6ED053A86ED064A724676
:109A50006146DAF800301D48224E06F0D1FFDBEDFA
:109A6000694A9BED215ADFF860C0CDF818C034EE8A
:109A7000856AF7EE008AB6EE008AF0EE685AE6EEE6
:109A8000085A3046311D06F11C0265EE889A4FF0E7
:109A90000003FFF79FF9C6ED069AB646BEE80F0031
:109AA00028E000BF842100208FC2F53CA41C0020C8
:109AB000D7A3F03E932B883F5426002000000000DF
:109AC0001006002000009242B81D0020442700200C
:109AD00060000020002F0020EC2E00200000803BC2
:109AE000C4300020C42E002028260020E82E0020AC
:109AF0006666263F0BAF0FC79EE8070087E80700A2
:109B000004220BA812A9FFF767FC0BA812A9FFF704
:109B1000B5FB96ED070ADDED0E7A5FED0B6A96ED6B
:109B2000087A0898DDF818C090F8D32077EEC00ABC
:109B3000022AA0EEA60A30EE471A86ED070AA1EE29
:109B4000267A86ED087A00F002829CF8B033DE496E
:109B50009CF8AFE3DD4E9CF8AE033070A1FB0372BE
:109B600057081EF1000218BF012295F8AD03D8F87E
:109B70001410D8F818E0D8F81C8086ED017A002A75
:109B800007EB470C18BFF0EE488ACCEB0303022822
:109B9000B270B1607370CBEDA28AC6F80CE0C6F863
:109BA000108005D09FEDCA8A012808BFB0EE498A0F
:109BB00095F8B5B395F8B273C64B95F8B32395F8FD
:109BC000B413DFF82883DFEDC42A95F8B6E386EDF9
:109BD000058A0BEB4B0009EE107A870903EBC70CE3
:109BE00001EE902A02EE101A9CE80300B8EE493A02
:109BF000F8EE613AB8EE424A6A68079BF36108F1F1
:109C0000200C63EE224A23EEA25A24EE226A8CE84C
:109C1000030001214FF0000B0027C8F81C1031622F
:109C20007162511C88F801E0C8ED024A88ED035AC0
:109C300088ED046A88F8007088F80270C8F804B0EB
:109C4000C8F814B0A54B1CD002EB0210C200A44F00
:109C5000069303EB020B17440BF1680B594607F50B
:109C6000357005F065FD594607F5CA6005F060FDE1
:109C7000594607F6CC1005F05BFD069B4FF0FF310F
:109C8000596004F12700974F0090CDF804A0CDF85B
:109C90000C90029795F8B1E3C6F818E0099992483C
:109CA0008A4A924BC8F818E007F0C2FD09EB040697
:109CB000B9F1000F00F0AC80DAF804C0D5ED171A46
:109CC00095ED132AD5ED182AD5ED143A95ED194ADC
:109CD000D5ED155A95ED165AD5ED129A8448814B5B
:109CE00007EB09172246214693ED000AF9EE046AB4
:109CF000B4EEE60AF1EE10FA08D4F1EE046AB4EE1E
:109D0000660AF1EE10FAD8BFF0EE406AB0EE426A91
:109D1000A6EEA16AF9EE048AFDEEC67A17EE90BAB5
:109D20008BF31005D58693ED013AB4EEE83AF1EEE7
:109D300010FA08D4F1EE048AB4EE683AF1EE10FAA3
:109D4000D8BFF0EE438AF0EE630AE8EEA20AB9EE5D
:109D5000047ABDEEE01A11EE10AA8AF31008A2F8F8
:109D6000408093ED028AB4EEC78AF1EE10FA08D46F
:109D7000B1EE047AB4EE478AF1EE10FAD8BFB0EE35
:109D8000487AB0EE659AA7EE049AF9EE046AFDEE01
:109D9000C94A14EE90BA8BF31005A2F84A5093ED1D
:109DA000030AB4EEE60AF1EE10FA08D4F1EE046A02
:109DB000B4EE660AF1EE10FAD8BFF0EE406AB0EEEB
:109DC000696AA6EE856A10330232F6EE007AFDEE7D
:109DD000C68A023018EE90AA8AF31008A2F82A80E8
:109DE00010F804BC81F856B0FCEC010AF4EEE70A66
:109DF000F1EE10FA54BF0025012581F85D5010F8EE
:109E000003AC81F864A0BB4201F101017FF46CAFA7
:109E1000384B09F101091F7884F85470A1445D782A
:109E200096F854C0987884F8555099F8547093F87F
:109E3000038084F85B0096F85B5093F804B084F8D4
:109E40005C8099F85B0093F805A084F862B096F8FE
:109E5000626084F863A099F8624083F800C05F7084
:109E60009D70D8701E715C7113B0BDEC048BBDE8A1
:109E7000F08F09925BE59FED202AF4EEC27AF1EEB5
:109E800010FA4DDD77EEC22A9FED1C3AB6EE009A2D
:109E9000A2EE839A71E49FED1A1A1A4F0897F4EE16
:109EA000C10AF1EE10FA44BF012387F8053158E4E6
:109EB0000021D9602BE5D868471CDF600FE5D86822
:109EC000471CDF60E7E400BFABAAAAAA502F00201E
:109ED00000000000000000200000803BB81D0020B2
:109EE0005C060020B031002014060020782F0020EE
:109EF000C6300020F82E002014AE073F932B883F79
:109F00000AD7A33CA41C0020D868471CDF609EE44D
:109F1000DF68781CD86076E4DF68781CD8604BE492
:109F2000B6EE009A29E49868471C9F605FE4986841
:109F3000411C9960EBE49F68781C9860C4E49F68BA
:109F4000781C98609CE49F68781C986074E477EEB5
:109F5000488AF2EE045A28EEA56AB9F1000F00F023
:109F6000A181D34894F82180D0F800C0D0ED024AF6
:109F7000214609EB040644468846002C00F0228165
:109F800091F827B05FEA8B7748BF80ED016A5FEAFE
:109F9000CB7240F18981D0ED019A9FEDC60A76EE31
:109FA000697A0BF00407E7EE809AFAB2C0ED019AE5
:109FB000002A00F00781D0ED010AF5EEC00AF1EEAB
:109FC00010FA08D5F7EE006A70EEA60AF5EEC00AA0
:109FD000F1EE10FAF6D4BDEEE07ABCF1000FB8EE67
:109FE000C71A70EEC17A40F33F8190ED038A9FED6E
:109FF000B29A77EEC81AB0EEE12AB4EEC92AF1EEB1
:10A0000010FA00F14D81F7EE002A37EEE23A73EED6
:10A01000483AB0EEE34AB4EEC94AF1EE10FA00F164
:10A020003D810CF1FF3B1BF00307A44A4FF00003F6
:10A030004AD0D2ED008A37EEE85A0123F0EEC55A35
:10A04000F4EEC95AF1EE10FA00F19E8073EE689AB0
:10A050000C32B0EEE90AB4EEC90AF1EE10FA00F1E2
:10A0600091809F4230D0022F16D0D2ED006A77EE59
:10A07000E60A0223B0EEE07AB4EEC97AF1EE10FA05
:10A0800000F1828033EE661A0C32B0EEC18AB4EE73
:10A09000C98AF1EE10FA75D492ED009ADFED861AB6
:10A0A00037EEC92A0133F0EEC22AF4EEE12AF1EECE
:10A0B00010FA69D473EE493A0C32B0EEE34AB4EECA
:10A0C000E14AF1EE10FA5DD401336345DFED7A8A9F
:10A0D0009B4600F0C680D2ED005A37EEE55AF0EE0E
:10A0E000C59AF4EEE89AF1EE10FA4DD433EE650A13
:10A0F000F0EEC06AF4EEE86AF1EE10FA42D4D2ED66
:10A10000030A37EEE07A0133B0EEC71AB4EEE81A6C
:10A11000F1EE10FA38D433EE608AB0EEC89AB4EE9D
:10A12000E89AF1EE10FA2DD4D2ED061A37EEE12AB4
:10A130000BF10203F0EEC22AF4EEE82AF1EE10FA77
:10A1400022D473EE613AB0EEE34AB4EEE84AF1EE9F
:10A1500010FA17D4D2ED095A37EEE55A0BF1030382
:10A16000F0EEC59AF4EEE89AF1EE10FA02F1300240
:10A170000AD433EE650AF0EEC06AF4EEE86AF1EE56
:10A1800010FAA1D5F0EE437A5F1C6AD003EB4303CB
:10A1900000EB830707F10C0393ED023AD3ED018A3C
:10A1A000F7EE000A33EE207A37EEA81AB7EE008AEF
:10A1B00081EE079A74EE884A83ED011A83ED009AC6
:10A1C00083ED027A0131B1427FF4D7AE4446C0F844
:10A1D00000C0C0ED024A3A4F07EB091BBB453FF4F4
:10A1E00067AD3846C7EB0B02A0EC016A131F83452D
:10A1F000C3F382013FF45CADF1B1012917D002290C
:10A2000013D003290FD004290BD0052907D0062924
:10A210001CBF80ED006A07F10800A0EC016AA0EC09
:10A22000016AA0EC016AA0EC016AA0EC016AA0EC52
:10A23000016A83453FF43CAD8046A8EC016A2030BA
:10A2400000ED076A88ED016A00ED056A00ED046A19
:10A2500000ED036A00ED026A00ED016A8345EBD16F
:10A2600026E5BCF1100FADD0DFED168A0CEB4C07E4
:10A2700000EB870BBCF1FF3F0BF10C03CBED048A25
:10A280000CF10102CBED038ACBED058A02D14FF030
:10A29000000C97E79446B7EE007A85E7F0EE437A34
:10A2A000002373E7264696E70BF00403DAB27FE655
:10A2B000782600200AD7233C398EE33C90260020E4
:10A2C000B03100200000000008B501EB0111C90009
:10A2D000034B0844882219446830FDF759FF08BD34
:10A2E000A84C02082DE9F04F2DED108B0446A44632
:10A2F0004FF0404287B0002300F8483B04F10801CA
:10A300004CF8282F0391E26222636263A263E26346
:10A3100022646264C1EB0C0504F10C08039A2E1F41
:10A320004FF07E57C445C6F38203176041D04BB34C
:10A33000012B21D0022B1BD0032B15D0042B0FD0C7
:10A34000052B09D0062B1CBFC8F8007004F11008BB
:10A350004FF07E5148F8041B4FF07E5548F8045BDF
:10A360004FF07E5648F8046B4FF07E5748F8047B58
:10A370004FF07E5348F8043B4FF07E5948F8049B59
:10A38000C44516D0C3464FF07E5A4BF804AB08F1D3
:10A39000200848F81CACCBF804A048F814AC48F8E6
:10A3A00010AC48F80CAC48F808AC48F804ACC4450C
:10A3B000E8D1A646EC494EF8581F06464FF08E48A5
:10A3C000E1652166616646F8048BC0EB0E02151F3D
:10A3D000B645C5F3820704F168053ED03FB3012FAF
:10A3E0001FD0022F19D0032F13D0042F0DD0052F0B
:10A3F00007D0062F18BF46F8048B4FF08E4346F85F
:10A40000043B4FF08E4046F8040B4FF08E4146F867
:10A41000041B4FF08E4946F8049B4FF08E4A46F8D5
:10A4200004AB4FF08E4B46F804BBB64515D0324610
:10A430004FF08E4842F8048B203646F81C8CC2F848
:10A44000048046F8148C46F8108C46F80C8C46F8BC
:10A45000088C46F8048CB645E9D1C44EC44FDFEDF4
:10A46000C5DA9FEDC5DADFEDC5BA9FEDC5BA9FED40
:10A47000C5AADFEDC59A9FEDC59ADFEDC58A2661B5
:10A480002763284600218822802640274FF01009A4
:10A490004FF0600B4FF0C008B7EE008AF5EE00CA2F
:10A4A000F6EE00AAB6EE08CA4FF0180ACDF804C0BE
:10A4B00008F024FD28460C214FF0FF354FF008022C
:10A4C00004F1F003C4ED1EDA84ED20DAC4ED24BA01
:10A4D00084ED26BA84ED2AAAC4ED2C9A84ED309A34
:10A4E000C4ED328AE16684F8745084F87C9084F874
:10A4F000B49084F884B084F8BCB0C4ED22CA84F867
:10A500008CA084F8C4A084F8946084F8CC6084F8AB
:10A510009C70C4ED28AA84F8A42084F8AC8084ED53
:10A520002ECA84ED1A8A00218822029308F0E6FCE4
:10A530004FF0FF334FF0080184F8743084F87C90BA
:10A5400084F884B084F88CA084F8946084F89C70BB
:10A5500084F8A41084F8AC8084F8B49084F8BCB07B
:10A5600084F8C4A084F8CC60029AC4ED1EDA0C20F2
:10A570009246E06684ED20DAC4ED22CAC4ED24BA26
:10A5800084ED26BAC4ED28AA84ED2AAAC4ED2C9A3B
:10A5900084ED2ECA84ED309AC4ED328A1046002133
:10A5A000882284ED1A8A042508F0A8FC4FF0FF3CAD
:10A5B0000C204FF0080184F8FCC004F5BC73C4F80B
:10A5C000F400C4ED40DA84F8049184ED42DA84F8B2
:10A5D0000CB1C4ED44CA84F81461C4ED46BA84F8E1
:10A5E0001C1184ED48BA84F82471C4ED4AAA84EDA4
:10A5F0004CAA84F83481C4ED4E9A84F83CB184EDC1
:10A6000050CA84F8449184ED529A84F84C61C4EDA8
:10A61000548A84F8549184F82C5184ED3C8A504635
:10A6200000218822029308F069FC4FF0FF334FF0BD
:10A63000080084F8FC3084F8049184F80CB184F8A4
:10A64000146184F81C0184F8247184F82C5184F876
:10A65000348184F83CB184F8449184F84C6184F8E6
:10A6600054910299C4ED40DA0C22C4F8F42084ED30
:10A6700042DAC4ED44CAC4ED46BA84ED48BAC4ED2A
:10A680004AAA84ED4CAAC4ED4E9A84ED50CA84EDDA
:10A69000529AC4ED548A08468822002184ED3C8AEF
:10A6A00008F02CFC4FF0FF3384F8843184F88C518F
:10A6B00084F894B184F89C5184F8A45184F8B4517E
:10A6C00084F8BC8184F8C45184F8CCB184F8D451A6
:10A6D00084F8DC514FF08C0A0C2204F50073C4F8A6
:10A6E0007C21C4ED62DA84ED64DAC4ED66CAC4ED9F
:10A6F00068BA84ED6ABAC4ED6CAA84ED6EAAC4EDA2
:10A70000709A84ED72CA84ED749AC4ED768A0298C8
:10A7100084ED5E8A84F8ACA100218822029308F0BF
:10A72000EDFB4FF0FF3284F8842184F88C5184F8DB
:10A7300094B184F89C5184F8A45184F8ACA184F8B5
:10A74000B45184F8C45184F8BC8184F8D45184F89D
:10A75000DC5184F8CCB10C21C4F87C11C4ED62DA70
:10A7600084ED64DA36E000BF6626C2C500007042A0
:10A770000000F0C23199AA3D68B32A3E4CA6AA3E19
:10A78000B459D53E2653153FDAAC2A3F2653553FE0
:10A79000DAAC6A3F5C8F023E6666863E1F85EB3E02
:10A7A000D49A163F4BEA343F17B7613F75029A3D82
:10A7B00044FA2D3EF0A7863E14D0A43EE17AD43E62
:10A7C00036CDFB3E8FC2153F50FC283FF90F593F55
:10A7D000992A683FC4ED66CA84ED72CAC4ED68BAAE
:10A7E00084ED6ABAC4ED6CAA84ED6EAAC4ED709AC9
:10A7F00084ED749AC4ED768A0021882284ED5E8A05
:10A8000002981FED1CFA5FED1CEA1FED1CEA5FEDDC
:10A810001CFA5FED1CDA1FED1CDA5FED1CCA5FED60
:10A820001CBA1FED1CBA5FED1CAA1FED1CAA5FED40
:10A830001C9A1FED1C9A5FED1C8A1FED1CCA08F0C4
:10A840005DFB84F82C82029B84F834724FF0080C74
:10A850004FF0070B4FF0200A4FF0FF3184F824C26D
:10A86000184684F80C1284F8146284F83C9284ED43
:10A8700084FAC4F804B284F81CA20021882284ED72
:10A88000808AC4ED86EA84ED88EAC4ED8AFAC4EDD4
:10A890008CDA84ED8EDA08F031FB4FF008024FF0CD
:10A8A000FF3084F83C9204F52279C4F804B284EDB8
:10A8B00084FA84F81CA21FED3AFA84F82C8284F8FA
:10A8C000242284F8347284F8146284F80C02002183
:10A8D00048468822C4ED86EA84ED88EAC4ED8AFA07
:10A8E000C4ED8CDA84ED8EDA84ED808A08F006FB04
:10A8F000DFF870B484F8A4520C234FF0FF31C4F891
:10A900008C3284F8AC5284F8C45284F8CC8284F837
:10A91000DC5284F8E452484684F8BC7284F8D4725D
:10A9200084F8EC7284F89C6284F8B46284F894121F
:10A93000C4F8D8B20021882284EDA28AC4EDA6CA48
:10A94000C4EDA8BA84EDAABAC4EDACAA84EDAEAA4F
:10A95000C4EDB09A84EDB29AC4EDB48A84EDB8CA5D
:10A9600084EDBAFA08F0CAFA04F5447A4FF0FF3CD5
:10A970000C2284F8A45284F8AC5284F8C45284F8AF
:10A98000CC82C4F8D8B284F8DC5284F8E45284F85B
:10A99000BC7284F8D47284F8EC7284F89C6284F8F7
:10A9A000B462C4F88C2284F894C200218822C4EDD9
:10A9B000A6CAC4EDA8BA84EDAABAC4EDACAA84EDC7
:10A9C000AEAAC4EDB09A84EDB29AC4EDB48A84ED17
:10A9D000B8CA84EDBAFA84EDA28A504608F08EFA1D
:10A9E0000C234FF0FF3184F8245384F83C5384F84F
:10A9F0004C5384F8548384F85C53C4F860B384F8EF
:10AA0000745384F8347384F8647384F82C6384F882
:10AA1000446384F86C63C4F8143384F81C138822EC
:10AA20000021C4EDC8CAC4EDCABA84EDCCBAC4EDE5
:10AA3000CEAA84EDD0AAC4EDD29A84EDD49AC4ED06
:10AA4000D68A84EDDACA84EDDCFA504684EDC48AF5
:10AA500008F054FA4FF00209002384F8548384F874
:10AA6000347384F864730120B44984F824530C27A8
:10AA70004FF0FF3884F83C5384F84C5384F85C530F
:10AA8000C4F860B384F8745384F82C6384F8446386
:10AA900084F86C6384F8AB63C4EDC8CAC4EDCABA69
:10AAA00084EDCCBAC4EDCEAA84EDD0AAC4EDD29A7E
:10AAB00084EDD49AC4EDD68A84EDDACA84EDDCFA4A
:10AAC00084EDC48AC4F8147384F81C8384F8A83312
:10AAD00084F8A93384F8AC3384F8AD3384F8AE330A
:10AAE00084F8AF3384F8AA0384F8B09384F8B133C0
:10AAF00084F8B26384F8B36384F8B43384F8B5633C
:10AB000084F8B69384F8B7330E688D4A039DC4F871
:10AB1000C053964204F56A75C4F8C453DDF804B016
:10AB200000F0228107F09EFCF32007F0D1FC022107
:10AB3000082007F007FDD4F8C0734FF4687007EBE6
:10AB4000000A3B46ADF8140000219C4693F802E051
:10AB50001CF8018BDE789CF800B01D795A7993F8C7
:10AB6000069041441BFA81F11EFA81F0083316FA6F
:10AB700080F615FA86F512FA85FC13F801EC19FA3D
:10AB80008CF21EFA82F853451FFA88F1DDD1CE43CC
:10AB9000BB466B496948ADF8166007F00FFD059993
:10ABA0006848694E07F00AFDC7EB0A075BF8041B0B
:10ABB00066483B1FC3F3820507F000FDDA4571D0FC
:10ABC000002D38D0012D2DD0022D25D0032D1DD0E4
:10ABD000042D15D0052D0DD0062D05D030465BF87F
:10ABE000041B5B4E07F0EAFC30465BF8041B07F0E1
:10ABF000E5FC043630465BF8041B07F0DFFC043646
:10AC000030465BF8041B07F0D9FC043630465BF88D
:10AC1000041B07F0D3FC043630465BF8041B07F036
:10AC2000CDFC04365BF8041B304607F0C7FCDA4560
:10AC300006F1040636D0D946304659F8041B06F111
:10AC4000040807F0BBFCDBF80410404607F0B6FC34
:10AC5000D9F8041006F1080007F0B0FCDBF80C107E
:10AC600006F10C0007F0AAFCDBF8101006F110004A
:10AC700007F0A4FCDBF8141006F1140007F09EFCAA
:10AC8000DBF8181006F1180007F098FC0BF1200B08
:10AC90005BF8041C06F11C0007F090FCDA4506F195
:10ACA0002006C8D1D4F8C453182005EB000A2B465F
:10ACB000ADF8140000211A469F7812F801CB93F8E2
:10ACC00003E092F800B01E7993F8059093F806809F
:10ACD00061441BFA81F117FA81F01EFA80F2083301
:10ACE00016FA82F719FA87F613F8010C18FA86FC9F
:10ACF00010FA8CFE53451FFA8EF1DCD1CA43154879
:10AD00001549ADF8162007F059FC14480599144F61
:10AD100007F054FC55F8041B384607F04FFC554526
:10AD200007F10407F6D102250123A4F8C8532370C4
:10AD300007B0BDEC108BBDE8F08F00BF00400008ED
:10AD400043414C49044000080C40000808400008FA
:10AD500010400008A843000853544154AC43000875
:10AD6000B04300082041413F8888B0F5687F7FF4F8
:10AD7000D9AEDB4A944692F802801CF801AB92F8F7
:10AD800003E09CF80090177990795679D54953449F
:10AD900019FA83F318FA83FC1EFA8CF8083217FAB2
:10ADA00088F716FA87FA12F8016C10FA8AFE16FA7A
:10ADB0008EF08A4283B2DDD1CB49DF43B1F80690F1
:10ADC000BAB291457FF4AEAE4FF468720398C449AD
:10ADD000CDF804B0FDF7DCF90122DDF804C0A4F8D9
:10ADE000C8230395002A00F02881C04BC0495501B3
:10ADF0002B441E688E4200F02681B4F8C823012A35
:10AE00003FF490AE94F8A9630020052E207002D97B
:10AE1000052284F8A92394F8AA7394F8AE5394F801
:10AE2000B03394F8B16394F8B60394F8A823022FD2
:10AE300084BF022784F8AA73022D84BF022584F8F8
:10AE4000AE53022B84BF022384F8B033052E84BF97
:10AE5000052684F8B163022888BF022094F8AD73F8
:10AE600088BF84F8B603022A84BF022284F8A8238C
:10AE7000022F84BF022784F8AD73E246012502E069
:10AE800001350AF1040A032D00F040819AED006AB1
:10AE90005AED080A9FED9C7A9FED9B1AFEEE006A20
:10AEA000FFEE007AE6EE267AF7EE001AB0EEE70A39
:10AEB00030EEE12AB4EEC70AF1EE10FAF0EEC22A43
:10AEC000C8BF4FF04041F4EEC12AC8BFCAF8001015
:10AED000F1EE10FAC8BF4AED081A082DD0D194ED52
:10AEE000163ADFED843AD4ED17CADFED82BAD4ED1D
:10AEF000186ADFED807AD4ED12EA9FED7FEAD4ED97
:10AF0000138A9FED7DCA9FED804ADFED7FFAD4ED75
:10AF1000142A9FED7DBA9FED7CFA9FED7B0AC3EE6C
:10AF2000234ACCEEABAAB7EE005A74EEC55AC6EE71
:10AF3000A70AB0EEE58A94ED195ADFED6E5A9FED3F
:10AF40006E3ADFED6DCAFFEE00DAEEEE8EDAC5EE98
:10AF500025EABFEE006AB7EE00AAA8EE8C6AB4EE4E
:10AF6000C48AB0EEEDDA7AEECA9AF1EE10FABFEECC
:10AF7000004AB4EEEFDAC8BFC4ED163AB0EEE99A73
:10AF8000F1EE10FAB7EE001AA2EE834AC4BF4FF0FA
:10AF90008E4AC4F848A0B4EECB9AB0EEC67A70EEF2
:10AFA000C11A94ED15DADFED583A9FED578AF1EEAC
:10AFB00010FABFEE00BAB4EECF7AC8BFC4ED17BA2C
:10AFC000B0EEE12AF1EE10FAB7EE00EAADEE2CBADF
:10AFD000C4BF4FF08E4AC4F84CA0B4EEC02AF0EEC5
:10AFE000C44A7EEECEFAF1EE10FAF4EEE34AC8BFA0
:10AFF000C4ED187AF0EEEFDAF1EE10FADFED42BAB6
:10B00000C8BF4FF08E4AF4EEC8DAF0EECBAAC8BF44
:10B01000C4F850A0F1EE10FAF4EEEBAAC8BFC4EDEC
:10B02000195AF1EE10FA7FF783AE4FF08E41616549
:10B0300007B0BDEC108BBDE8F08F2B4B2C491E6880
:10B040008E427FF4DAAE988818287FF4D6AE03F1EA
:10B05000080A524603F1200B0021964692F802801E
:10B060001EF8019BD7789EF800001679557992F862
:10B0700006E0494410FA81F118FA81F017FA80F7D6
:10B08000083216FA87F615FA86F812F8015C1EFAED
:10B0900088F115FA81F05A4581B2DED1DF88C943C3
:10B0A0008BB29F427FF4A9AEBAE80F00039E0D4D0C
:10B0B000B26030607160F360BAE8030071613061C2
:10B0C000B4F8C8A30D490AF1010B1FFA8BF24FEA3D
:10B0D00042194D448D42A4F8C8237FF683AE8EE614
:10B0E00008400008A8430008004000088843000802
:10B0F000535441546626C2C5000000380080000841
:10B100000000F0C200007042CDCCCC3D94ED0CAA02
:10B110005FED059AD4ED046A5FED067A1FED069A9D
:10B120001FED077ACAEE298A86EEA70AB7EE00CA93
:10B1300038EECCFAF7EE000A30EE601AB0EECF6AC5
:10B14000B4EEC96AF0EEC11AF1EE10FAF4EEC71AC5
:10B15000C8BFC4ED0C9AF1EE10FA7FF791AEC4EDC2
:10B16000047A8DE62DE9F04383B0804607F07AF942
:10B17000F32007F0ADF90221082007F0E3F9D8F831
:10B18000C0634FF4687206EB02093346ADF8042041
:10B19000002118469F7810F801CBDD7890F800E088
:10B1A0001C795A79987961441EFA81F117FA81F76E
:10B1B000083315FA87F514FA85F412FA84FC13F8AB
:10B1C00001EC10FA8CF21EFA82F04B4581B2E0D10C
:10B1D000CF43344662496348ADF8067007F0EEF994
:10B1E00001996148614D07F0E9F9C6EB090654F889
:10B1F000041B5F48331FC3F3820707F0DFF94C4598
:10B2000069D0002F38D0012F2DD0022F25D0032F49
:10B210001DD0042F15D0052F0DD0062F05D02846A0
:10B2200054F8041B534D07F0C9F9284654F8041B81
:10B2300007F0C4F90435284654F8041B07F0BEF99A
:10B240000435284654F8041B07F0B8F9043528469D
:10B2500054F8041B07F0B2F90435284654F8041BCF
:10B2600007F0ACF9043554F8041B284607F0A6F99A
:10B270004C4505F104052ED02646284656F8041BF9
:10B280002F1D07F09BF96168384607F097F9716840
:10B2900005F1080007F092F9E16805F10C0007F0EC
:10B2A0008DF9216905F1100007F088F9616905F150
:10B2B000140007F083F9A16905F1180007F07EF981
:10B2C000203454F8041C05F11C0007F077F94C45B4
:10B2D00005F12005D0D1D8F8C4434FF0180904EB8C
:10B2E00009062346ADF8049000219C4693F802E03D
:10B2F0001CF8019BDF789CF800C01D795A79987979
:10B3000049441CFA81F11EFA81FE083317FA8EF7C0
:10B3100015FA87F512FA85F913F801CC10FA89F2BB
:10B320001CFA82F0B34281B2DFD1CF4312481349F5
:10B33000ADF8067007F042F911480199114D07F078
:10B340003DF954F8041B284607F038F9B44205F1DA
:10B350000405F6D10224A8F8C84303B0BDE8F08381
:10B3600043414C4900400008044000080C400008DC
:10B370000840000810400008A843000853544154F6
:10B38000AC430008B04300082DE9F047B0F8C813FB
:10B39000BD4BBE4A804648010344934282B040F20E
:10B3A000FB8007F05FF8F32007F092F802210820F5
:10B3B00007F0C8F8D8F8C0634FF4687206EB020AC9
:10B3C0003346ADF8042000219E469F781EF8019B6D
:10B3D000DD789EF800C01C795A79987949441CFAA6
:10B3E00081F117FA81F7083315FA87F514FA85F415
:10B3F00012FA84FE13F8019C10FA8EF219FA82F008
:10B40000534581B2E0D1CF433446A149A148ADF8BC
:10B41000067007F0D3F801999F48A04D07F0CEF8C9
:10B42000C6EB0A0654F8041B9D48331FC3F382077A
:10B4300007F0C4F854456AD0002F38D0012F2DD022
:10B44000022F25D0032F1DD0042F15D0052F0DD08E
:10B45000062F05D0284654F8041B924D07F0AEF88D
:10B46000284654F8041B07F0A9F80435284654F878
:10B47000041B07F0A3F80435284654F8041B07F012
:10B480009DF80435284654F8041B07F097F8043556
:10B49000284654F8041B07F091F8043554F8041BAF
:10B4A000284607F08BF8544505F104052FD0A14636
:10B4B000284659F8041B2E1D07F080F861683046B5
:10B4C00007F07CF8D9F8041005F1080007F076F8C9
:10B4D000E16805F10C0007F071F8216905F1100031
:10B4E00007F06CF8616905F1140007F067F8A169CD
:10B4F00005F1180007F062F8203454F8041C05F137
:10B500001C0007F05BF8544505F12005CFD1D8F8B1
:10B51000C4434FF0180A04EB0A062346ADF804A012
:10B5200000219C4693F802E01CF8019BDF789CF810
:10B5300000A01D795A79987949441AFA81F11EFAC6
:10B5400081FC083317FA8CF715FA87F512FA85FE95
:10B5500013F8019C10FA8EF219FA82F0B34281B20C
:10B56000DFD1CF4348485049ADF8067007F026F8C0
:10B570004E4801994E4D07F021F854F8041B284617
:10B5800007F01CF8B44205F10405F6D10224A8F82E
:10B59000C84302B0BDE8F08706F064FFF32006F070
:10B5A00097FFD8F8C453B8F8C8631827EC192B468E
:10B5B000ADF804700021994693F802C019F801AB68
:10B5C00093F803E099F800901F795A7998795144DB
:10B5D00019FA81F11CFA81FC1EFA8CFA083317FA69
:10B5E0008AF712FA87FE13F8019C10FA8EF219FA04
:10B5F00082F0A34281B2DED1CC43ADF80640002EEA
:10B6000037D0013E20482849294F4FEA461A504476
:10B6100006F0D4FF25480199504406F0CFFF574467
:10B62000ED1B07F10409E959384606F0C7FF55F844
:10B630000910484606F0C2FF07F10800295806F035
:10B64000BDFF07F10C00295806F0B8FF07F1100004
:10B65000295806F0B3FF07F11400295806F0AEFF91
:10B66000B8F8C8C30CF10103A8F8C83302B0BDE8AC
:10B67000F0870D4907480A4F06F0A0FF01990648D8
:10B6800006F09CFFCCE700BFA8430008008000083C
:10B6900043414C4900400008044000080C400008A9
:10B6A000084000081040000853544154AC430008BF
:10B6B000B043000808B506F0D5FE06F0E3FE0C2006
:10B6C00006F0F8FE06F09AFFBDE8084006F0EABE74
:10B6D0002DE9F04704460898C4F8D410C4F8D820DF
:10B6E000C4F8DC30C4F8E00004F18C0002F040FB48
:10B6F00004F1A80002F038FCD4F8D450294B2A48B1
:10B700000022C4F8E420C4F8E820C4F8EC20C4F80F
:10B71000F020C4F8F420C4F8F820C4F8FC20C4F8E1
:10B72000002100210422012605F2AB3A05F56B79D0
:10B7300005F2B53805F2B23C05F2B33E05F56D777A
:10B74000C4F8881084F80411C4F8841084F8061131
:10B75000C3F81CA04FF40051C3F82490C3F8148020
:10B76000C3F82CC0C3F834E0DF631E7683F8206092
:10B770001A7483F8282083F8302083F8382007F0E3
:10B7800093F850B995F8B703831B18BF012385F8C8
:10B79000B733D4F8D400FFF7F7FD002584F805513E
:10B7A000BDE8F0870032002000080240022894BF64
:10B7B0000023012370B49C01E21A03EB820C184AA7
:10B7C000184E15686044C4B2EDB256F82400A9B111
:10B7D00010681168C1F344120F2A88BFC2F11F021A
:10B7E00000F00F0688BFD2B27CB94FEAA20C0CF170
:10B7F0000304B442ACBF4FF47F400020802D02D838
:10B80000002B18BF002070BC7047012C05D0002E03
:10B8100014BF00204FF47F00F0E70348EEE700BFBD
:10B8200044320020D84F020800FFFF0078B1012801
:10B8300011D0124A13681168C3F304100F28C8BF4F
:10B84000C0F11F0001F00F0C604501DA00207047C5
:10B850004FF47F4070470029FAD0084A13681068F7
:10B86000C3F344110F29C8BFC1F11F0100F00F023B
:10B870008A42D4BF4FF47F400020704744320020FA
:10B880002DE9F843D0F8D4507A4B95F8B77319687E
:10B8900095F8B1231E68B7F1010801F07F09D8F1CE
:10B8A000000151EB0807B9F1400F94BF4FF00009B8
:10B8B0004FF00109022A044618682BD8F0B28028FC
:10B8C0002CD96D4E56F82280A7B11B686B499E0992
:10B8D000A1FB06034FEAD30E0EEB4E00A6EB800150
:10B8E000B2EB610F61DB664A11F0010F0CBF4FF044
:10B8F0000008904604F18C06304602F0CFFA94F826
:10B90000D3C0BCF1070F45D8DFE80CF00B520B5940
:10B91000646C777F00F03F06202E40D84FF000087F
:10B92000D2E7394695F8A903FFF740FFC4F8900025
:10B93000394695F8AA03FFF739FFC4F8940094F844
:10B94000051195F8A803FFF771FFC4F88C0039467C
:10B9500095F8AE03FFF72AFFC4F89C0094F8051190
:10B9600095F8AD03FFF762FF94F8D310C4F8980080
:10B97000002971D195F8AF23002A74D00846C4F885
:10B98000A00095F8AF53002D0CBF00274FF47F4760
:10B99000C4F8A470304602F08FFABDE8F883364947
:10B9A000A2F1030C51F82C808EE74FF00008A1E7BC
:10B9B000C4F8A080304602F07FFABDE8F883B9F100
:10B9C000000F44D14846C4F89400304602F074FA9F
:10B9D000BDE8F883B9F1000FF4D039460120FFF734
:10B9E000E5FEF0E7B9F1000F2CD14846C4F8A000FD
:10B9F000304602F061FABDE8F883B9F1000FF4D0E7
:10BA000039460120FFF7D2FEF0E7B9F1000F0FD061
:10BA100000234FF47F07C4F89070C4F89430C4F842
:10BA20009C30C4F8A070304602F046FABDE8F883B6
:10BA30004FF47F05C4F890904F46C4F89450C4F872
:10BA40009C50EEE739460020FFF7B0FECEE73946BE
:10BA50000020FFF7ABFEB6E74FF47F40C4F8A080AC
:10BA6000C4F8A40096E7394695F8B003FFF79EFEA8
:10BA700085E700BF44320020D84F0208ABAAAAAA2B
:10BA800000FFFF002DE9F04FC94E336800F1A80513
:10BA9000591C83B004462846316002F0C5FA0023E1
:10BAA00098465A5D802A00F04981002A00F01881EA
:10BAB0007F2A04D194F8CC00002800F0598101229B
:10BAC000211DA3181F1B785D802800F0968080BB85
:10BAD00093F8CC00002852D1D6F80090D1F8B000ED
:10BAE000DFF8CCC2C0EB0900B0F5FA6F019046DD7B
:10BAF00094F80401002842D1D4F888E004F1040944
:10BB000009EBCE080EF1010000F00F0A4FF0040B14
:10BB1000019809F83EB0C8F80400A8F80220C4F85B
:10BB200088A0DCF8000020604FF0010C83F8CCC046
:10BB3000785D7F2823D193F8CC7007BBD6F800E05E
:10BB4000D4F88800D1F8B07004F1040B0BEBC00CF2
:10BB50000EF1010900F1010AC7EB09084FF0040ECC
:10BB60000AF00F070BF830E0CCF80480ACF80220A4
:10BB7000C4F8887030682060012783F8CC700133E6
:10BB80001F1B0132785D802801F1040155D0002887
:10BB900074D07F2823D193F8CC7007BBD6F800E08F
:10BBA000D4F88800D1F8B07004F1040B0BEBC00C92
:10BBB0000EF1010900F1010AC7EB09084FF0040E6C
:10BBC0000AF00F070BF830E0CCF80480ACF8022044
:10BBD000C4F8887030682060012783F8CC70013287
:10BBE000072A01F1040103F101037FF46BAF204642
:10BBF000FFF746FE03B0BDE8F08FD4F8880004F1EB
:10BC0000040B0BEBC00C00F101094FF0000E4FF0DC
:10BC1000040A09F00F080BF830A0ACF80220CCF8A9
:10BC200004E0C4F888803068D6F800B02060C1F81D
:10BC3000B0B083F8CCE0785D49E7D4F8880004F12F
:10BC4000040B0BEBC00C00F101094FF0000E4FF09C
:10BC5000040A09F00F080BF830A0ACF80220CCF869
:10BC600004E0C4F888803068D6F800B02060C1F8DD
:10BC7000B0B083F8CCE0785D00288AD193F8CC008E
:10BC80000028ACD1D6F80090D1F8B000DFF820C180
:10BC9000C0EB0900B0F5FA6F0190A0DD94F804A1A3
:10BCA000BAF1000F9BD1D4F888E004F1040909EB44
:10BCB000CE080EF1010A4FF0040B0AF00F0A09F842
:10BCC0003EB0C8F80400A8F80220C4F888A0DCF848
:10BCD000000020604FF0010C83F8CCC0785D58E77D
:10BCE00094F8CC1000297FF4EAAE3068D4F8B02084
:10BCF0002F4F811AB1F5FA6F7FF7E1AE94F8040186
:10BD000000287FF4DCAED4F888E004F1040A0AEBE2
:10BD1000CE0B0EF1010202F00F090420CBF8041043
:10BD2000ABF802308BF80000C4F888903F682760B9
:10BD3000012184F8CC1018F80520B9E6D4F8880061
:10BD4000221D02EBC009471C07F00F010420A9F8CF
:10BD50000230C9F8043089F80000C4F88810376848
:10BD60003268C4F8B020276084F8CC305A5D9CE675
:10BD70003768D4F88810D4F8B00004F1040C0CEB48
:10BD8000C10E07F101084A1C02F00F01C0EB0800C8
:10BD90000427AEF80230CEF804008EF80070C4F824
:10BDA000881033682360012284F8CC2087E600BF26
:10BDB0004432002090F8D33070B50546D81E0328D1
:10BDC00038D8DFE800F078613802D5F8D8409FED28
:10BDD000746AD4F88020D4ED2A3AD2ED007AE16F6B
:10BDE000D4F8A061D1ED004A96ED005A94ED724A64
:10BDF000D4F89C31D4ED095AD3ED006A94ED0B7A56
:10BE000033EEE70A74EE450A80EE241AC0EEA61A55
:10BE1000B6EE002A61EE022A37EE653AE1EE822A9A
:10BE2000B4EEC63AF1EE10FAC4ED0C2A7BDC072022
:10BE300085F8D30070BDD5F8D860D6F8801096ED9F
:10BE40002A0AD1ED000AF36FD6F8A02193ED001A6B
:10BE5000D2ED001A96ED722AD6F89C0170EE602A97
:10BE6000D0ED007A32EE613AC2EE813A0624C3EE9A
:10BE7000274AB6EE005A23EE854AA4EE854A86ED9F
:10BE80000A4A85F8D34070BDD5F8D860D6F8C810F6
:10BE9000D6ED3C5A91ED006AD6F8C43075EEC66A0C
:10BEA00093ED007A86EE870A4FF0050C86ED0B0ABB
:10BEB00085F8D3C070BDD5F8D860012406F16003C1
:10BEC000316A002203E00132013448330431022A8E
:10BED000F9D0052AF7D053F8280CD3ED000A90EDDD
:10BEE000001A53F82C0C70EEC11A90ED002AC1EE26
:10BEF000822A082C32EEA23A81ED003AE3D1D6F83C
:10BF0000C820D6ED3C3AD2ED007AD6F8C44073EEA4
:10BF1000E74A94ED005A84EE854A042186ED094AE9
:10BF200085F8D31070BDDFED1F3AB4EEE33AF1EEC1
:10BF300010FA7FF57CAFF3EE087AC7EE834A226AE7
:10BF400094ED0A4AC2ED0A4AB2EE085AA5EEE45A46
:10BF500072EEC45A82ED025AF4EEC65AF1EE10FAAD
:10BF60007FF765AFF4EEE35AF1EE10FA7FF55FAFBD
:10BF70009FED0D6ADFED0D6AD5F8D40086EE257AC7
:10BF80000024E4EE476A82ED0D7A82ED097AC2ED73
:10BF9000056AC2ED016AFFF7E5F885F8D34070BD88
:10BFA0009A9999BECDCCCCBDCDCCCC3ECDCC4C3E1F
:10BFB000F0B4854C00F1E4030022D100D0F8D85051
:10BFC000F3EC016A9FED817A8E1805EBC607D7ED79
:10BFD000197A37EEE60AF0EEC00AF4EEC70AF1EE7F
:10BFE00010FA1FDB43ED017A2678676800EB060C38
:10BFF0009CF8A850B5B9022E00F0DD80DFED741A70
:10C0000027EEA12AFCEEC22A12EE905AEDB23D7044
:10C01000D0F8D860114406EBC101012781F85C70AB
:10C0200080F8047101324FEAC20CD0F8D8609FED5D
:10C03000673A0CEB020506EBC5011F46D1ED193A34
:10C04000B7EC014A73EEC44A04F10801B0EEE45AB9
:10C05000B4EEC35AF1EE10FA1EDB47ED013A267A30
:10C060004D68841994F8A840B4B9022E00F08A8073
:10C070009FED576A23EE867AFCEEC77A17EE907A28
:10C08000FCB22C70D0F8D860944406EBCC0C01259F
:10C090008CF85C5080F80451541CE500D0F8D8604E
:10C0A000D3ED016A9FED490A2F1906EBC70CDCEDB1
:10C0B000190A30EEE61AF0EEC11AF4EEC01AF1EEEB
:10C0C00010FA1FDBC3ED010A0F7AD1F80CC0C619B4
:10C0D00096F8A860B6B9022F5DD0DFED3D2A20EEBC
:10C0E000A23AFCEEC33A13EE907AFEB28CF80060EE
:10C0F000D0F8D8702C4407EBC404012584F85C50B8
:10C1000080F80451941CE500D0F8D86093ED024A01
:10C11000DFED2E4A05EB040C06EBCC0797ED195A20
:10C1200075EE445A0C33B0EEE56AB4EEE46AF1EE13
:10C1300010FA1FDB03ED015A0F7CD1F814C0C619A9
:10C1400096F8A860B6B9022F2DD0DFED217A65EE02
:10C15000276ABCEEE60A10EE107AFEB28CF8006098
:10C16000D0F8D8702C4407EBC404012584F85C5047
:10C1700080F804510332082A01F118047FF41DAF3E
:10C18000F0BC7047DFED135AF4EEE53AF1EE10FA29
:10C190003FF577AF6CE79FED0F2AF4EEC20AF1EEA0
:10C1A00010FAA3D499E79FED0B7AB4EEC75AF1EEDB
:10C1B00010FAD3D4C9E79FED071AF4EEC17AF1EE75
:10C1C00010FA3FF524AF19E7003200206F12033C4C
:10C1D00000007F43CDCCCC3DF0B54B119D1E83B00C
:10C1E000044601F01F02052D34D8DFE805F03A457A
:10C1F00056C003C811F003004FEAA20600F0E08029
:10C20000012800F0D580D4F81071D4F8D400390C8E
:10C2100006EE901A1FFA87FCB8EE660A01EE10CA05
:10C22000BCEE007A60EE070AF8EEC17A06F1840EE1
:10C2300070EEA71A00EB8603BCEEE12AC3ED160AE6
:10C2400012EE105AC3ED127A24F81E50FEF78AFF40
:10C25000002004E0D4F8D87037F81220100A03B098
:10C26000F0BD062A40F29C80D11FC8B2D4F8E0602D
:10C27000355C05F00100F2E70023003218BF01220F
:10C28000184684F80621A4F80831A4F80A31A4F865
:10C290000C31A4F80E3103B0F0BD002A7AD1D4F8E5
:10C2A000D40080F8A823D4F8D46086F8AD23D4F85D
:10C2B000D47087F8A923D4F8D430012583F8AA5381
:10C2C000D4F8D40080F8AE23D4F8D460022786F8DE
:10C2D000B073D4F8D43083F8AF23D4F8D4000191EC
:10C2E000FEF740FF0322019D84F8D320D4F8D41038
:10C2F0003648D1ED163AD1ED125A91ED174A91ED2B
:10C30000136AD1ED184AD1ED142A91ED195A91ED25
:10C31000150A0668266015F0010FB7EE003AF0EE38
:10C32000086A08BFF0EE436AE6EEA35A0020A6EEC4
:10C33000846AE6EEA42AA6EE850ABCEEE57AFCEE57
:10C34000C60ABCEEE21AFCEEC07A17EE10CA10EE76
:10C35000905A11EE107A17EE90EAA4F808C1A4F8EA
:10C360000A51A4F80C71A4F80EE103B0F0BDD4F8A2
:10C37000E0402244117A4B42D8B203B0F0BDD4F869
:10C38000103101F00F0C4CEA03110020C4F8101119
:10C3900003B0F0BD20460191FFF70CFD019DA5E71C
:10C3A000224492F8A840D4F1010038BF002056E79B
:10C3B00006F1840041F6985224F8102000204EE740
:10C3C00084364AF6357724F8167048E74432002060
:10C3D00030B4044654ED037A94ED007A07C884B073
:10C3E000B4EEE77A0DF1040CF1EE10FAA4F10C03AF
:10C3F0008CE807000CD593E8070084E807001C468A
:10C400000C3B93ED000AB4EEC70AF1EE10FAF2DC31
:10C410008DED017A9CE8070084E8070004B030BC89
:10C42000704700BF2DE9F043884285B00446884636
:10C4300000F0D28000F10C07B94200F0CD8000F18D
:10C44000180616ED037AD4ED007AB54B881B8108E7
:10C45000B4EEE77A03FB01F2F1EE10FA02F0030901
:10C4600000F1BD803846FFF7B3FFB04507F10C0778
:10C4700006F10C0500F0B080B9F1000F00F09F80CC
:10C48000B9F1010F20D0B9F1020F0ED015ED030A5A
:10C49000D4ED000AB4EEE00AF1EE10FA00F1F380F8
:10C4A0003846FFF795FF0C370C3515ED031AD4ED20
:10C4B000001AB4EEE11AF1EE10FA00F1FE803846EF
:10C4C000FFF786FF0C370C3515ED032AD4ED002A53
:10C4D000B4EEE22AF1EE10FAA94600F108813846DE
:10C4E000FFF776FFC84507F10C0705F10C0566D18B
:10C4F00072E015E90700C4EB07098A4E4FEAA90C60
:10C5000006FB0CF30DF1040989E8070033B103EBD6
:10C5100043018A00A81A214606F090FC99E807001A
:10C5200084E8070094ED004AD5ED004AF4EEC44AD1
:10C53000F1EE10FA05F10C0607F10C0740F18480CA
:10C5400095E80700C4EB070C764D4FEAAC030DF1FC
:10C55000040905FB03F389E8070033B103EB43014A
:10C560008A00B01A214606F069FC99E8070084E8C1
:10C57000070094ED005AD6ED005AF4EEC55AF1EEDC
:10C5800010FA06F10C0307F10C0C41D46046FFF7DA
:10C590001FFF06F1180919ED036AD4ED006AB4EE25
:10C5A000E66AF1EE10FA07F1180351D41846FFF7C6
:10C5B0000FFFC84507F1240706F124050CD015ED3F
:10C5C000033AD4ED003AB4EEE33AF1EE10FA90D427
:10C5D0003846FFF7FDFEA5E705B0BDE8F08397E814
:10C5E0000700504DC4EB070C4FEAAC0305FB03F307
:10C5F00001AD85E8070033B103EB43008200B01AB8
:10C60000214606F01BFC95E8070084E807002CE7AC
:10C6100096E80700C4EB0C05DFF808914FEAA50C7B
:10C6200009FB0CF901AD85E80700B9F1000F06D050
:10C6300009EB49018A00981A214606F0FFFB95E8AC
:10C64000070084E80700A4E73846FFF7C1FE90E73B
:10C6500006F10C0007C8334DC4EB030C4FEAAC03E2
:10C6600005FB03F301AD85E807003BB103EB430293
:10C670009200C2EB0900214606F0E0FB95E80700B6
:10C6800084E8070095E796E80700C4EB0709254E04
:10C690004FEAA90C06FB0CF30DF1040989E8070029
:10C6A00033B103EB43018A00A81A214606F0C6FB0A
:10C6B00099E8070084E80700F5E615E90700C4EBF0
:10C6C000070C184E4FEAAC030DF1040906FB03F307
:10C6D00089E8070033B103EB43029200A81A214610
:10C6E00006F0ACFB99E8070084E80700EAE615E9E4
:10C6F00007000C4EC4EB070C4FEAAC0306FB03F338
:10C7000001AE86E8070033B103EB43008200A81AAC
:10C71000214606F093FB96E8070084E80700E1E66F
:10C72000ABAAAA2AABAAAAAA2DE9F001571E9046E5
:10C7300007EBD772571089B0B9428C4606468DED8B
:10C74000010ACDED020A8DED031AB8BF0D4601DBDB
:10C750007CE02546681C440004EB800106EB810365
:10C7600093ED007A53ED037AB4EEE77A05EB4505D5
:10C77000F1EE10FA06EB850504D5013C04EB44020A
:10C7800006EB820393E80700BC4285E80700E0DB84
:10C7900018F0010F06D1A8F1020808EBD877B4EB26
:10C7A000670F43D001AA07CA05AD644585E80700B5
:10C7B000DDED010A0FDD04F1FF3808EBD8704710FA
:10C7C0007900CA1906EB820898ED000AF4EEC00A57
:10C7D000F1EE10FA0BDCCDED050A95E8070083E8D1
:10C7E000070009B0BDE8F00170473C461746CB1979
:10C7F00006EB830393E8070004EB440407F1FF38DA
:10C8000006EB840408EBD87884E807004FEA680256
:10C8100051008818BC4506EB8004DCDA94ED001A60
:10C82000B4EEE01AF1EE10FAD5D5DEE7013465007A
:10C8300005EB840006EB800111E907006C1E04EB98
:10C84000440783E8070006EB8703ABE701EB4103EE
:10C8500000EB83030C469BE72DE9F04F0B1A87B0E2
:10C86000172B824600910193174640F3A1806C4933
:10C870009A1001FB02F9A9F102004FEA600B0BEBE1
:10C880004B040AEB84081BF003044FF0000603ADD1
:10C8900075D098E8070085E80700594650469DED99
:10C8A000030ADDED040A9DED051A4A46FFF73CFF39
:10C8B000012C0BF1FF3B6FF00B0660D0022C13D064
:10C8C000464496E8070085E80700594650469DED26
:10C8D000030ADDED040A9DED051A4A46FFF724FF21
:10C8E0000BF1FF3B6FF0170608EB060C9CE8070006
:10C8F00085E80700594650469DED030ADDED040A20
:10C900009DED051A4A460C3E0BF1FF3BFFF70CFF6D
:10C9100035E093E8070085E8070050469DED030ADF
:10C92000DDED040A9DED051A21464A46FFF7FCFE9F
:10C93000A6F11801414407C985E80700ABF10201DF
:10C940009DED030ADDED040A9DED051A50464A46A9
:10C95000FFF7EAFEA6F12402424407CA85E8070071
:10C96000ABF1030150469DED030ADDED040A9DED98
:10C97000051A4A46303EABF1040BFFF7D5FE08EB33
:10C98000060E9EE8070085E8070050469DED030A65
:10C99000DDED040A9DED051A59464A46FFF7C4FE2F
:10C9A000A6F10C030BF1FF344344BBF1000FB0D1EF
:10C9B0000098B84231D2019E194D009CB11005FB80
:10C9C00001F904F10C0604E0B74206F10C0B24D97E
:10C9D0005E4616ED037ADAED007AB4EEE77AF1EE10
:10C9E00010FAF1D5A6F10C0898E807000DF1180C23
:10C9F0000CE907009AE807009DED030ADDED040A43
:10CA00009DED051A88E80700504600214A46FFF7C9
:10CA10008BFEB74206F10C0BDAD807B0BDE8F08FF9
:10CA2000ABAAAAAA2DE9F0470B1ACB2B84B0064675
:10CA30000F46914640F31681002A00F08D8000F1E8
:10CA40000C0801AD8C4A96ED037A57ED036A9810F5
:10CA500002FB00F14C1004EB440A06EB8A0CDCEDFF
:10CA6000007AB4EEE77AF1EE10FA09F1FF3958D501
:10CA7000F4EEE67AF1EE10FA00F1F780B4EEE67A21
:10CA8000F1EE10FA96E8070063D485E8070098E80D
:10CA9000070086E8070095E8070088E807003B469E
:10CAA000444696ED000AD4ED000AB4EEE00AF1EE39
:10CAB00010FA07DD0C3494ED001AB4EEC01AF1EE52
:10CAC00010FAF7D453ED031AB4EEE10AF1EE10FABE
:10CAD000A3F10C0307D50C3B93ED002AB4EEC02A5A
:10CAE000F1EE10FAF7DCA3420DD994E8070085E8CF
:10CAF000070093E8070084E8070095E807000C3476
:10CB000083E80700CDE7394620464A46FFF78AFF0B
:10CB1000A31BCB2B40F3A680B9F1000F1ED02746F4
:10CB200090E7B4EEE67AF1EE10FA00F1A180F4EEAF
:10CB3000E67AF1EE10FA96E807000AD485E80700D5
:10CB40009CE8070086E8070095E807008CE80700E6
:10CB5000A5E7A7F10C0CF1E73C4601ADA4F10C07E9
:10CB6000304621462246FFF777FE97E8070085E822
:10CB7000070096E80700C6EB0709B846C6EB040AAB
:10CB80003D4F9DED010ADDED020A9DED031AAAF16C
:10CB9000180C4FEAA90388E8070007FB03F23046A8
:10CBA000A7FB0C130021C3F3C00AFFF7BDFDB9F1C9
:10CBB000170F57DDBAF1000F1CD0A4F1180E9EE834
:10CBC000070085E8070096E80700C6EB0E044FEA69
:10CBD000A4088EE807009DED010ADDED020A9DED37
:10CBE000031A07FB08F230460021F046FFF79CFDD0
:10CBF000172C37DDA8F10C0797E8070085E8070038
:10CC000096E80700C6EB070CDFF86C909DED010A73
:10CC1000DDED020A9DED031A4FEAAC0387E8070039
:10CC2000A8F1180A09FB03F230460021FFF77CFD4A
:10CC30009AE8070085E8070096E80700C6EB0A04B3
:10CC4000A7108AE807009DED010ADDED020A9DEDBF
:10CC5000031A09FB07F230460021FFF765FD172C88
:10CC6000D046C7DC04B0BDE8F08796E8070065E76A
:10CC700096E8070009E700BFABAAAAAA2DE9F84F7A
:10CC800090F8043104463BB3D0F8D80090F85C101B
:10CC9000012941D090F8A420012A00F08E8090F85C
:10CCA000EC60012E70D090F83431012B77D090F8E1
:10CCB0007C21012A3BD090F8C411012942D090F880
:10CCC0000C22012A49D090F85412012950D000209A
:10CCD00084F80401BDE8F88F4E88022E0ED0D0F8FB
:10CCE000D450062E08D8DFE816F0A700B5000700DC
:10CCF000C900EF009200D700BDE8F88F90F8AD5062
:10CD0000002D67D10126032580F8D35080F8D1602B
:10CD100080F8CE60BDE8F88F90F8A420436E83665B
:10CD20004FF0020C012A80F85CC0B8D145E090F8C1
:10CD3000C411D0F88451C0F888510226012980F826
:10CD40007C61BCD190F80C22D0F8CC31C0F8D03145
:10CD50000227012A80F8C471B5D190F85412D0F896
:10CD60001452C0F818520226012980F80C62AED184
:10CD7000D0F85C32C0F86032022780F8547200208C
:10CD800084F80401BDE8F88F90F83431D0F8F4B09D
:10CD9000C0F8F8B00221012B80F8EC1087D190F890
:10CDA0007C21D0F83C71C0F840714FF0020A012A92
:10CDB00080F834A17FF47FAFB9E790F8EC60D0F849
:10CDC000AC70C0F8B0700225012E80F8A4507FF43A
:10CDD0006AAFD9E790F8D3E0D0F8D460AEF10301A0
:10CDE000CAB2032A40F2B98096F8AAA3C8480AF149
:10CDF000010880FB080909EB4903C3EB080786F823
:10CE0000AA73D4F8D400BDE8F84FFEF7BDBA94F881
:10CE1000D300C21ED7B2032F40F2A2804968B1F5F9
:10CE2000FA6FC0F2828010B9012084F8D30028463E
:10CE3000BDE8F84FFEF7A8BA95F8A843002C5AD1E0
:10CE40004B68B3F5FA6FB4BF0127022785F8A873C2
:10CE5000BDE8F88F4E6895F8A983AE4FB6F5FA6F26
:10CE6000A7FB08014FEA51003CDB0028DFD108F1A5
:10CE7000030185F8A913D4F8D450D8E795F8AD4349
:10CE8000002C45D14A68B2F5FA6FB4BF01270227DA
:10CE900085F8AD73BDE8F88F94F8D3304968022B5C
:10CEA00064D0B1F5FA6FC0F28580D4F8DC504FF051
:10CEB000000A0222002784F8D3202F60C5F804A0BE
:10CEC000C5F808A0BDE8F88F95F8AEE3904A0EF1DA
:10CED000010782FB071808EB4801C1EB070985F839
:10CEE000AE938EE7002857D0A8F1030685F8A96312
:10CEF000D4F8D4509BE7022C00F01C824868B0F5AF
:10CF0000FA6FB4BF0022022285F8A823BDE8F88F8B
:10CF1000022C00F025824B68B3F5FA6FB4BF0026EF
:10CF2000022685F8AD63BDE8F88F012800F008827D
:10CF300095F8AF33002B7FF47AAF95F8B083744E39
:10CF400008F1010086FB001909EB490ACAEB00024F
:10CF500085F8B023D4F8D45069E7FEF72BFF50E7EB
:10CF60002046FEF727FFD4F8D45060E7B1F5FA6FFA
:10CF700095F8B1832CDB28464146FDF7A5F9D4F896
:10CF8000D400FEF7EFF8D4F8D430C3F804800022C0
:10CF900084F8D320BDE8F88F5D4A08F1010982FBCF
:10CFA000091C0CEB4C03C3EB090785F8A973D4F8F3
:10CFB000D4503CE795F8AF63D6F1010038BF0020AC
:10CFC00085F8AF03D4F8D400BDE8F84FFEF7DCB91C
:10CFD000D4F8DC90D9F800000128D8DD00EB40033C
:10CFE00009EB830B0BF10C0A09F10C06564500F016
:10CFF0009980C6EB0A074749B81001FB00FCBCFA50
:10D000008CFECEF11F02520030465146FFF70AFD5A
:10D01000CB2F40F3AA8109F1CC0B59463046FFF7DC
:10D0200001FADA4565D0CBEB0A03A3F10C073A49C4
:10D03000BA08584601FB02F309F1D80703F0070BC1
:10D04000FFF7C6F9BA4554D0BBF1000F2FD0BBF1A2
:10D05000010F26D0BBF1020F1FD0BBF1030F18D078
:10D06000BBF1040F11D0BBF1050F0AD0BBF1060FC5
:10D0700003D03846FFF7ACF90C373846FFF7A8F96C
:10D080000C373846FFF7A4F90C373846FFF7A0F9FC
:10D090000C373846FFF79CF90C373846FFF798F9FC
:10D0A0000C3738460C37FFF793F9BA4521D038468C
:10D0B000FFF78EF907F10C00FFF78AF907F1180066
:10D0C000FFF786F907F12400FFF782F907F1300036
:10D0D000FFF77EF907F13C00FFF77AF907F1480006
:10D0E000FFF776F907F154006037FFF771F9BA4599
:10D0F000DDD1D9F80000002814DC882606FB085989
:10D100004FF07E55C9F86C00C9F8685037E700BF8A
:10D1100056555555ABAAAAAAABAAAA2A00000000E8
:10D1200000007F43D9ED057A1FED047AF4EEC77A4B
:10D13000F1EE10FA4FF0010200F1FF3A48BFF0EEB5
:10D14000477A82420AF0070109F1200300F0BE800D
:10D1500000296DD001295BD002294BD003293BD097
:10D1600004292BD005291BD006290BD093ED000AEA
:10D17000B4EEE70AF1EE10FA58BFF0EE407A022260
:10D1800009F12C039C46DCED000AF4EEE70AF1EE0F
:10D1900010FA03F10C0302F1010258BFF0EE607ABD
:10D1A0009E469EED001AB4EEE71AF1EE10FA03F176
:10D1B0000C0302F1010258BFF0EE417A9B46DBED11
:10D1C000001AF4EEE71AF1EE10FA03F10C0302F183
:10D1D000010258BFF0EE617A1F4697ED002AB4EEC7
:10D1E000E72AF1EE10FA03F10C0302F1010258BF35
:10D1F000F0EE427A9A46DAED002AF4EEE72AF1EEF2
:10D2000010FA03F10C0302F1010258BFF0EE627A4A
:10D21000194691ED003AB4EEE73AF1EE10FA02F158
:10D22000010258BFF0EE437A824203F10C034DD065
:10D23000D3ED003A93ED034AD3ED064A93ED095A34
:10D24000D3ED0C5A93ED0F6AD3ED126A93ED157A74
:10D25000F4EEE73AF1EE10FA58BFF0EE637AB4EE6E
:10D26000E74AF1EE10FA58BFF0EE447AF4EEE74ADE
:10D27000F1EE10FA58BFF0EE647AB4EEE75AF1EE30
:10D2800010FA58BFF0EE457AF4EEE75AF1EE10FAD4
:10D2900058BFF0EE657AB4EEE76AF1EE10FA58BFC7
:10D2A000F0EE467AF4EEE76AF1EE10FA58BFF0EECF
:10D2B000667AB4EEE77AF1EE10FA02F1080258BF8E
:10D2C000F0EE477A824203F16003B1D108EB081017
:10D2D00005EBC00505F1680A4FF07E57CAF8042037
:10D2E000CAF8007009F118014FF0000B01E00E467A
:10D2F0000C31D6F800C0CAF808C0D6ED020A1FEDFE
:10D30000780A20EE801A0126C1EE271A0BF1010BD4
:10D310000AF1080ABCEEE12A12EE10EA1EF0FF0044
:10D3200014BF8AF804008AF80460D9F80050AB45AD
:10D33000DDDB24E64FF0010B85F8A8B3BDE8F88FDC
:10D3400095F8B1B30B4F0BF1010187FB010C0CEB0E
:10D350004C03A1EB430685F8B163D4F8D45066E5DD
:10D36000012085F8AD03BDE8F88F51463046FFF740
:10D3700059F8BEE6ABAAAA2A30B5D0F88820D0F872
:10D3800084300446D01A83B0020718BF6D4609D115
:10D3900023E0D4F88800D4F88420C2EB000E5FEAC2
:10D3A0000E731AD0D4F8843004EBC30101F1040CDD
:10D3B0009CE8030085E803009DF80020581C00F05D
:10D3C0000F03042AC4F88430E3D101990029E0D086
:10D3D00020466946FFF752FCDBE7184D2046FEF772
:10D3E000E7FD23682968C81AB0F5487F10D994F87A
:10D3F000D320072A1ED0012A0ED02D680F49C3EB77
:10D40000050EBEF57A7F01D90B68236003B030BDED
:10D4100094F8D320012AF0D12D680849C3EB050CFC
:10D42000BCF57A6FF2D90B682360002084F8D30032
:10D4300003B030BD002284F8D320DEE74432002060
:10D440002DE9F04780469CB00F464FF48000012143
:10D4500005F0CAFA0120014605F0C6FA02200121B2
:10D4600005F0C2FA0420012105F0BEFA4FF48070E5
:10D47000012105F0E3FA4FF400700121002405F0CA
:10D48000DDFA0326FF2301A9884801938DF80B409C
:10D490008DF8086005F0BCF801A9854801968DF863
:10D4A0000B408DF8086005F0B3F83F2201A98148D0
:10D4B00001928DF80B408DF8086005F0A9F8A7429D
:10D4C0000CBF082501254FF4806C4FF4005E4FF42B
:10D4D00080724FF400330DA9774811954FF400691D
:10D4E0000125DFF8E8A1CDF84CC0CDF854E0169244
:10D4F0001793CDF83C800D941094129418941A94BC
:10D500001B94CDF838A0CDF85090199504F042FF47
:10D510002946694804F07AFF08F110084FF00072BC
:10D52000664B67480D920DA90E93CDF83C8004F030
:10D5300031FF2946624804F069FF4FF440314FF44F
:10D54000706203A8039405940491069204F0FAFD16
:10D55000CDF82C9007948DF820508DF821400A9436
:10D560000994002F36D007A956488DF8305004F0A2
:10D57000BBFD07A9544804F0B7FD52480C212A46C8
:10D58000062304F001FE31462A464F48062304F0E4
:10D59000FBFD4C48012104F05BFE4B48012104F0E7
:10D5A00057FE4848012104F0E5FD4748012104F0F9
:10D5B000E1FD4448012104F041FE0121424804F00C
:10D5C0003DFE404804F034FE3F4804F031FE1CB0FC
:10D5D000BDE8F087082407A93A488DF8304004F0E8
:10D5E00083FD07A9384804F07FFD2A4635480D2100
:10D5F000062304F0C9FD334809210222062304F062
:10D60000C3FD32462F480C21062304F0BDFD2D48F2
:10D6100002210422062304F0B7FD2A480F21052227
:10D62000062304F0B1FD0622134626480A2104F021
:10D63000ABFD24480B210722062304F0A5FD21465B
:10D6400022462048062304F09FFD2A461E48052155
:10D65000062304F099FD39461B480222062304F0F4
:10D6600093FD314632461848062304F08DFD2946C5
:10D6700015480422062304F087FD134804210522DF
:10D68000062304F081FD062213460F48072104F00B
:10D690007BFD0D480E210722062304F075FD0621AF
:10D6A00022460B46084804F06FFD72E70000024076
:10D6B0000004024000080240106402404C21014076
:10D6C0004064024000200140002101404C20014004
:10D6D00008B5044804F0ACFD0348BDE8084004F078
:10D6E000A7BD00BF00200140002101402DE9F0410D
:10D6F0000546012082B00146DFF8748005F074F918
:10D7000002AE04200121002405F06EF94FF4807769
:10D710000123404669468DF8043046F8087D8DF8AF
:10D7200006408DF805408DF8074004F071FF4FF476
:10D7300000724046694600928DF804408DF806401C
:10D740008DF805408DF8074004F062FF69462C70A3
:10D75000EC602C720548009704F05AFF6C702C6145
:10D760006C726C606C6102B0BDE8F0810000024038
:10D770000008024043695A1C3F2A2DE9F00142612A
:10D7800030DCD0F80C80057A0469436890F800C05A
:10D79000467A1E4FDA0F0CF0010C82EA0C0CC444DE
:10D7A00085F00105C0F80CC081F8205090F8018088
:10D7B00007FB03F308F001077A4003F5405C1444CB
:10D7C0000CF1390386F00106046181F821604360A1
:10D7D0000F48002B4FF48071B4BF01834183BDE833
:10D7E000F0017047C5680669072DCCBF00250125EB
:10D7F000072E4FF00007CCBF002601263C460572DD
:10D80000467247610761B846BFE700BF6D4EC6412B
:10D8100000080240F0B46B4C03782569AD0503F0B5
:10D82000010640F1CA80B70007700B684C68664D6E
:10D830001C4484F822702F694678FC0506F0010329
:10D8400040F1B6809E00467091E830002C44012AD9
:10D8500084F8276040F2AA800C684F6890F800C0F6
:10D8600027440CF0010587F823500C684B68467874
:10D87000E718022306F00105A2F1020C934287F893
:10D8800028500CF0030400F09180002C3DD0012CB6
:10D8900026D0022C10D00E684B680778334407F06E
:10D8A000010583F824500C684E684378264403F041
:10D8B000010786F8297003230D684C6890F800C0B2
:10D8C0001D442C440CF0010684F822600F684C685B
:10D8D00045781F443C4405F00106013384F8276075
:10D8E0000F684C6805781F443C4405F0010684F835
:10D8F00022600F684C6845781F443C44013305F0B2
:10D900000106934284F8276050D00F684C68057870
:10D910001F443C4405F0010684F822600F684C68FF
:10D9200045781F443C4405F0010684F827600E68E2
:10D930004D6890F800C05C1C264435440CF001078B
:10D9400085F822700E684D6890F801C02644354471
:10D950000CF0010485F827400E684D68077803F144
:10D96000020C6644354407F0010485F822400E6835
:10D970004D684778B444654407F0010C85F827C02A
:10D980000E684D680778DC1C2644354407F0010C0E
:10D9900085F822C00E684D68477834442544043326
:10D9A00007F00104934285F82740AED1F0BC7047E0
:10D9B000002B0CBF0326012645E7002E0CBF0327D2
:10D9C000012731E70008024000000240F0B50420C2
:10D9D00083B0012105F008F80120014602AC174E82
:10D9E000174D05F001F84FF40043012244F8083DBB
:10D9F00069463046002402278DF805208DF8047012
:10DA00008DF806408DF8074004F002FE4FF4A05355
:10DA100069462846009304F0FBFD28460A210622A9
:10DA200004F04EFF28460C21062204F049FF304640
:10DA30000F21062204F044FF03B0F0BD00000240B5
:10DA40000008024070B5002084B00C4604F0C6FF08
:10DA5000002004F073FF4FF48170032104F064FF91
:10DA6000012004F06BFF3B2005F012F80028FAD0EB
:10DA700001214FF4004004F0D3FF0F4805F030F8C7
:10DA8000A00041080023052202914FF40076694668
:10DA900030250948ADF80420ADF80630ADF80C305B
:10DAA000ADF80060ADF8025005F082F8024801219F
:10DAB00005F004F904B070BD003C00402DE9F041D0
:10DAC000234C90B006460D464FF40010012104F09F
:10DAD0008BFF2046002104F099FC204604F0C2FB95
